{
  "_format": "hh-sol-artifact-1",
  "contractName": "SendEth",
  "sourceName": "contracts/SendEth.sol",
  "abi": [
    {
      "inputs": [],
      "stateMutability": "payable",
      "type": "constructor"
    },
    {
      "inputs": [],
      "name": "sendEth",
      "outputs": [],
      "stateMutability": "nonpayable",
      "type": "function"
    }
  ],
  "bytecode": "0x608060405261004c6040518060400160405280601981526020017f57652068617665206265656e20636f6e7374727563746564210000000000000081525061005160201b6101381760201c565b6101d4565b6100ed816040516024016100659190610152565b6040516020818303038152906040527f41304fac000000000000000000000000000000000000000000000000000000007bffffffffffffffffffffffffffffffffffffffffffffffffffffffff19166020820180517bffffffffffffffffffffffffffffffffffffffffffffffffffffffff83818316178352505050506100f060201b60201c565b50565b60008151905060006a636f6e736f6c652e6c6f679050602083016000808483855afa5050505050565b600061012482610174565b61012e818561017f565b935061013e818560208601610190565b610147816101c3565b840191505092915050565b6000602082019050818103600083015261016c8184610119565b905092915050565b600081519050919050565b600082825260208201905092915050565b60005b838110156101ae578082015181840152602081019050610193565b838111156101bd576000848401525b50505050565b6000601f19601f8301169050919050565b610455806101e36000396000f3fe608060405234801561001057600080fd5b506004361061002b5760003560e01c806306e99fef14610030575b600080fd5b61003861003a565b005b6000655af3107a4000905047811115610088576040517f08c379a000000000000000000000000000000000000000000000000000000000815260040161007f906102d3565b60405180910390fd5b60003373ffffffffffffffffffffffffffffffffffffffff16826040516100ae9061029c565b60006040518083038185875af1925050503d80600081146100eb576040519150601f19603f3d011682016040523d82523d6000602084013e6100f0565b606091505b5050905080610134576040517f08c379a000000000000000000000000000000000000000000000000000000000815260040161012b906102f3565b60405180910390fd5b5050565b6101ce8160405160240161014c91906102b1565b6040516020818303038152906040527f41304fac000000000000000000000000000000000000000000000000000000007bffffffffffffffffffffffffffffffffffffffffffffffffffffffff19166020820180517bffffffffffffffffffffffffffffffffffffffffffffffffffffffff83818316178352505050506101d1565b50565b60008151905060006a636f6e736f6c652e6c6f679050602083016000808483855afa5050505050565b600061020582610313565b61020f8185610329565b935061021f81856020860161033a565b6102288161036d565b840191505092915050565b6000610240603483610329565b915061024b8261037e565b604082019050919050565b6000610263602783610329565b915061026e826103cd565b604082019050919050565b600061028660008361031e565b91506102918261041c565b600082019050919050565b60006102a782610279565b9150819050919050565b600060208201905081810360008301526102cb81846101fa565b905092915050565b600060208201905081810360008301526102ec81610233565b9050919050565b6000602082019050818103600083015261030c81610256565b9050919050565b600081519050919050565b600081905092915050565b600082825260208201905092915050565b60005b8381101561035857808201518184015260208101905061033d565b83811115610367576000848401525b50505050565b6000601f19601f8301169050919050565b7f547279696e6720746f207769746864726177206d6f7265206d6f6e657920746860008201527f616e2074686520636f6e7472616374206861732e000000000000000000000000602082015250565b7f4661696c656420746f207769746864726177206d6f6e65792066726f6d20636f60008201527f6e74726163742e00000000000000000000000000000000000000000000000000602082015250565b5056fea26469706673582212200dff876295ea8fad3fb10d004f155a66d700152496a6c016f83ca52df348a43c64736f6c63430008040033",
  "linkReferences": {},
  "deployedLinkReferences": {}
}